:020000040800F2
:10000000100400209D010008050C0008010C0008E8
:10001000030C000809020008650D0008000000003C
:10002000000000000000000000000000B90C000803
:100030000B020008000000002D0C0008BB0C00089B
:10004000B7010008B7010008B7010008B7010008B0
:10005000B7010008B7010008B7010008B7010008A0
:10006000B7010008B7010008B7010008B701000890
:10007000B7010008B7010008B7010008B701000880
:10008000B7010008B7010008B7010008B701000870
:10009000B7010008B7010008B7010008B701000860
:1000A000B7010008B7010008B7010008B701000850
:1000B000B7010008B7010008B7010008B701000840
:1000C000B7010008B7010008B7010008B701000830
:1000D000B7010008B7010008B7010008B701000820
:1000E000B7010008B7010008B7010008B701000810
:1000F000B7010008B7010008B7010008B701000800
:10010000B7010008B7010008B7010008B7010008EF
:10011000B7010008B7010008B7010008B7010008DF
:10012000B7010008B7010008B7010008B7010008CF
:10013000B7010008B7010008B7010008B7010008BF
:10014000B7010008B7010008B7010008B7010008AF
:10015000B7010008B7010008B7010008B70100089F
:10016000B7010008B7010008B7010008B70100088F
:10017000B7010008B70100080000000000000000FF
:10018000B7010008B7010008DFF80CD000F02AF82A
:1001900000480047690D0008100400200648804709
:1001A00006480047FEE7FEE7FEE7FEE7FEE7FEE75C
:1001B000FEE7FEE7FEE7FEE7190D000889010008EB
:1001C000D2B201E000F8012B491EFBD27047002299
:1001D000F6E710B513460A4604461946FFF7F0FF46
:1001E000204610BD064C074D06E0E06840F00103D4
:1001F00094E8070098471034AC42F6D3FFF7C8FFE5
:10020000640E0008840E0008FEE770472DE9FF4FDA
:10021000614A07274FF0000A4FF0000E0026904277
:1002200000F138424FEAB22308BF0627062B38BF39
:100230004FEAB22700F12C020092021D01970292B0
:100240000B6833FA06F708BF00F0B2B8012202FAD1
:1002500006F713EA070B00F09380D1F804C04CF0C6
:100260001004122C11D10EF01C050F2202FA05F415
:100270004D4A02EA56020244136AA3430C6904FA87
:1002800005F52B431362D1F804C0032304680CF076
:100290000309BCF1120F03FA0AF309FA0AF224EA7D
:1002A00003046FEA030842EA040202606ED80122E6
:1002B00002FA0CF212F0061F68D08268CB6804259F
:1002C00002EA080203FA0AF31A438260029C2CFA3B
:1002D00005F2236802F00102B240BB431A432260D8
:1002E000C2688B6802EA080203FA0AF31A43C26082
:1002F0005FEACC0244D52B4A0EF00C070F25BD4017
:100300001346126842F001021A601A68234B02F089
:1003100001021C46039226F003021A44039B234B5E
:100320009C46D358AB43019D05FA07F73B4342F87F
:100330000C3022684F6842EA0B0317F4803F08BF75
:1003400022EA0B0317F4003F2360626842EA0B03C2
:1003500008BF22EA0B0317F4801F6360A26842EA19
:100360000B0308BF22EA0B030D4A17F4001FA3601A
:100370001546126842EA0B0308BF22EA0B032B6002
:100380000AF1020A0EF1040E013659E7B9F1030F22
:10039000A6D1009C03259AE70018004800040140FC
:1003A0000C04014060100240FCFFFF7F08FCFFFFCF
:1003B0001FBCBDE8E08F1823002A08BF2823C150C6
:1003C0007047000004480068704700BF0248016899
:1003D00001310160704700BF0800002080B5032094
:1003E00000F05AF8002000F007F808B1012080BDA5
:1003F00000F018F8002080BDB0B5044693484FF4D3
:100400007A710068B0FBF1F000F0E6FB08B101255D
:1004100006E04FF0FF3021460022002500F01AF8D8
:100420002846B0BD82B00A48816841F00101816070
:10043000816801F0010101910199016841F0805149
:100440000160006800F080500090009802B0704792
:100450005810024010B5164B1B68C3F3022E0EF164
:10046000040CAEF103048EF00703BCF1070F4FF04C
:10047000010C38BF0024042B28BF04230CFA03F31B
:10048000013B19400CFA04F3013BA1401A4011430F
:10049000BDE8104000F0B8BB05494FF6FF030A68FD
:1004A0001A4060F30A22034810430860704700BFF7
:1004B0000CED00E00000FA051A49B0F5007F0A686B
:1004C00002F4C0621BD1B2F5007F20D0086801227F
:1004D00062F34A20322208605C48006850430D4AAB
:1004E000B0FBF2F0C0434A6918B1013012F48062E7
:1004F000F9D1486910F4806F09D0032008E0B2F503
:10050000806F04D00868022262F34A20086000204D
:10051000C0B2704740420F000248006800F4C0605B
:10052000704700BF007000402DE9F0418846044646
:10053000002800F085806C4E4FF48050315801F057
:10054000070141450AD2315821F0070141EA08016B
:100550003150305800F00700404571D1206810F04C
:10056000010F31D06068022806D0032809D1316814
:1005700011F0007F0CD163E0316811F4003F07D126
:100580005EE0316810B1490502D459E0890757D5BA
:10059000B168354621F003010843B060FFF712FF50
:1005A000064641F288372846A868616800F00C00CA
:1005B000B0EB810F06D0FFF705FF801BB842F2D9E0
:1005C00003203EE020682E46810705D5B168A26869
:1005D00021F0F0011143B1604FF48051725802F0E4
:1005E000070242450AD9725822F0070242EA08027D
:1005F0007250715801F00701414521D1410705D5DD
:10060000B168E26821F4E0611143B160000706D5EA
:10061000B068216920F4605040EAC100B06000F089
:1006200017F8B168084AC1F30311515C01F01F01CA
:10063000C840064908600020BDE8F041FFF7DCBE75
:100640000120C0B2BDE8F081220E000800000020A9
:1006500025498A68C86812F00C0205D00C2A26D1F8
:1006600000F00300012822D10868224B10F0080F87
:1006700019BF08680009D1F89400000A002A00F0A8
:100680000F0053F8200008BF70470C2A1CBF002041
:100690007047CA6802F00303CA68022BC2F3021251
:1006A00002F101020DD0032B08BF11480AE002F04D
:1006B0000F00042804BF0D487047082811D10C48CA
:1006C00070470A48B0FBF2F0CA68C2F30622C96854
:1006D00050430222C1F3416102EB4101B0FBF1F052
:1006E00070470020D1E700BF001002400024F40052
:1006F00000127A00340E00082DE9FC470446002859
:1007000000F0CF81DD49DE4E48688A4600F00C08D3
:10071000886800F003092078C00629D42078C00733
:100720007BD0B8F1080F70D0B8F10C0F08BFB9F149
:10073000030F6AD06768B7F5803F07D03068B7F518
:10074000A02F40F0EB8140F480203060306840F40E
:1007500080303060FFF736FE0546306810F4003F09
:100760005BD1FFF72FFE411B03206429F5D999E1E6
:10077000B8F1000F1CD0B8F10C0F08BFB9F1010F90
:1007800016D0A1693068002900F0218140F00100F5
:100790003060FFF717FE0546306810F0020F40F09A
:1007A0002881FFF70FFE411B03200229F4D979E1CC
:1007B0003068554610F0020F03D0A069002800F001
:1007C0007081206A316811F0080F06BFD5F89010CB
:1007D0000909316801F0F00188426BD900F028FA6C
:1007E000002840F05E81306840F0080030603068DA
:1007F000216A20F0F000084330602868E16920F4A5
:100800007F4040EA0120286069E0306810F4003F32
:1008100003D06068002800F04481207880072FD53D
:10082000B8F1040F1CD0B8F10C0F08BFB9F1020FDA
:1008300016D0E1683068002900F0F08040F4807044
:100840003060FFF7BFFD0546306810F4806F40F060
:100850005A81FFF7B7FD411B03200229F4D921E19A
:100860003068524610F4806F03D0E068002800F032
:1008700018811068216920F0F85040EA016010608A
:1008800020785746000751D56169D7F89000C9B361
:1008900040F00100C7F89000FFF794FD0546D7F837
:1008A000900010F0020F41D1FFF78CFD401B022891
:1008B000F5D98AE0316841F008013160316821F0F2
:1008C000F001014331602968E26921F47F4141EA86
:1008D0000221296000F0ACF9002840F0E280FFF727
:1008E000B7FE6968B64AC1F30311515C01F01F01FC
:1008F000C840B44908600020FFF77EFD002840F0A2
:10090000D1800BE720F00100C7F89000FFF75AFDF7
:100910000546DAF89000574610F0020F06D0FFF7B0
:1009200051FD411B03200229F3D9BBE02078400789
:1009300040F1B080786D10F0805F0BD1786D4FF092
:10094000010940F080507865786D00F0805001908A
:10095000019801E04FF000099B4FF05910F4807F9F
:1009600011D1F05940F48070F051FFF72BFD05468E
:10097000F05910F4807F06D1FFF724FD411B0320BE
:100980000229F5D98EE0A768012F08D0DAF88C008B
:100990005146052F54D140F00400C1F88C00DAF81C
:1009A0008C0040F00100CAF88C00FFF70BFD0546F3
:1009B00041F288375046DAF88C0010F0020F61D10E
:1009C000FFF700FD401BB842F4D903206AE020F095
:1009D00001003060FFF7F6FC0546306810F0020FAA
:1009E0003FF49CAEFFF7EEFC411B03200229F4D933
:1009F00058E03068524640F0080030603068216AA4
:100A000020F0F00008433060DAF80000E16920F4DB
:100A10007F4040EA0120CAF800007FE620F48070A1
:100A20003060FFF7CFFC0546306810F4806F3FF46C
:100A300027AFFFF7C7FC411B03200229F4D931E09F
:100A400020F00100C1F88C00D1F88C0020F00400E7
:100A5000C1F88C00FFF7B6FC0546002FA8D141F283
:100A600088375046DAF88C0010F0020F0AD0FFF7F2
:100A7000A9FC411B0320B942F3D913E00410024042
:100A800000100240B9F1000F57461EBF786D20F0EC
:100A900080507865A06A002800F08F80B8F10C0FB4
:100AA00003D1012002B0BDE8F0873168022821F0AF
:100AB000807131600DD1FFF785FC0546306810F07C
:100AC000007F44D0FFF77EFC411B03200229F5D9AB
:100AD000E8E7306810F0205F03D1B86820F0030029
:100AE000B860B86839490840B860FFF76BFC044645
:100AF000306810F0007F60D0FFF764FC011B03201A
:100B00000329F5D3CEE7DAF800002169524620F038
:100B1000F85040EA0160CAF80000B1E620F48030E5
:100B20003060306820F480203060FFF74BFC0546D1
:100B3000002F7FF412AE306810F4003F3FF46DAE2A
:100B4000FFF740FC411B03206429F4D9AAE704F114
:100B50002C078FCF256C1E4C04EA43336FF00F0433
:100B600004EB011141EA02214FF07E42084319498A
:100B7000184301EA0751A1F50011084305F0FE01F1
:100B800002EB01610843CAF80800306840F0807049
:100B90003060DAF8080040F08070CAF80800FFF70B
:100BA00011FC0446306810F0007F06D1FFF70AFC04
:100BB000011B03200229F5D974E7002072E700BF6A
:100BC000220E0008000000200060FEFFFFFFEEFE86
:100BD0000000FEFF0000E0FF411E0020B0EB116F9F
:100BE0001CBF01207047044AF023516003490B7079
:100BF000072190601160704710E000E023ED00E0F5
:100C0000FEE7FEE77047000010B5074C054B00F00B
:100C10000F02002804444FEA0110B8BFD418207016
:100C200010BD00BF14ED00E000E400E070470000DC
:100C3000BCB51F4D0446286810F0805F0FD12868AE
:100C400040F080502860286800F0805001900198A2
:100C5000FFF762FC296821F08051296001E0FFF76D
:100C60005BFCB0F5007F06D1812C08D30120A02CBD
:100C700088BF02200EE0802C03D903200AE0002068
:100C800008E0A4F17000802CB0FA80F04FEA501018
:100C900008BF022007490A6822F0070202430A60DF
:100CA000096801F00701081A18BF012002B0B0BDA1
:100CB00058100240002002407047FFF787BBB0B5D4
:100CC00096B005AC202104F10800FFF780FA4FF43C
:100CD0008030022103250690012005900F91CDE977
:100CE0001050142012900720CDE9130120461591D1
:100CF000FFF702FD0F200421CDE900050020CDE91A
:100D0000020004906846FFF70FFC4FF40070FFF7F5
:100D1000D3FB16B0B0BD000010B50F48104CD0F892
:100D2000801041F47001C0F880100C490A6842F04C
:100D300001020A6000228A600B6823400B604FF4B6
:100D40008053CB600B6823F480230B608A614FF0E3
:100D50000061016010BD00BF08ED00E0001002401E
:100D6000FFFFF6EAFEE7000070B586B0FFF736FB3E
:100D7000FFF7A5FF0020214C01224FF460750126EA
:100D800005901D48016841F080010160016801F093
:100D9000800100910099016841F0100101604FF459
:100DA0006071006800F01000009000982046FFF786
:100DB00002FB0220CDE90156039601A904902046CA
:100DC000FFF724FA0E4D20464FF460710122FFF721
:100DD000F2FA01950198411E00280191FAD12046AE
:100DE0004FF460710022FFF7E6FA01950198411E69
:100DF00000280191FAD1E6E74C10024000100048AB
:100E0000FFFF7F0002E008C8121F08C1002AFAD1C4
:100E100070477047002001E001C1121F002AFBD17A
:100E200070470000000000000000010203040607F4
:100E300008090000A0860100400D0300801A06008A
:100E400000350C0040420F0080841E0000093D0068
:100E500000127A000024F40000366E010048E80118
:100E6000006CDC02880E0008000000200800000072
:100E7000040E0008900E000808000020080400007E
:100E8000140E00080000000000093D0000000000F2
:040000050800018965
:00000001FF
