:020000040800F2
:1000000070060020CD010008910A00088D0A000842
:100010008F0A0008D3020008650B000800000000EA
:10002000000000000000000000000000BB0A000803
:10003000D502000800000000B90A0008BD0A000847
:10004000E7010008E7010008E7010008E7010008F0
:10005000E7010008E7010008E7010008E7010008E0
:10006000E7010008E7010008E7010008E7010008D0
:10007000E7010008E7010008E7010008E7010008C0
:10008000E7010008E7010008E7010008E7010008B0
:10009000E7010008E7010008E7010008E7010008A0
:1000A000E7010008E7010008E7010008E701000890
:1000B000E7010008E7010008E7010008E701000880
:1000C000E7010008E7010008E7010008E701000870
:1000D000E7010008E7010008E7010008E701000860
:1000E000E7010008E7010008E7010008E701000850
:1000F000E7010008E7010008E7010008E701000840
:10010000E7010008E7010008E7010008E70100082F
:10011000E7010008E7010008E7010008E70100081F
:10012000E7010008E7010008E7010008E70100080F
:1001300000F002F800F03AF80AA090E8000C8244BF
:100140008344AAF10107DA4501D100F02FF8AFF29C
:10015000090EBAE80F0013F0010F18BFFB1A43F0A5
:1001600001031847880A0000A80A0000103A24BFBB
:1001700078C878C1FAD8520724BF30C830C144BF0C
:1001800004680C607047000000230024002500264E
:10019000103A28BF78C1FBD8520728BF30C148BFEA
:1001A0000B6070471FB51FBD10B510BD00F058F8AB
:1001B0001146FFF7F7FF00F0D7FC00F076F803B424
:1001C000FFF7F2FF03BC00F07DF80000094880470C
:1001D00009480047FEE7FEE7FEE7FEE7FEE7FEE729
:1001E000FEE7FEE7FEE7FEE704480549054A064B41
:1001F00070470000190B0008310100087000002052
:100200007006002070020020700200204FF00002F3
:1002100000B5134694469646203922BFA0E80C50FC
:10022000A0E80C50B1F12001BFF4F7AF090728BFD7
:10023000A0E80C5048BF0CC05DF804EB890028BF53
:1002400040F8042B08BF704748BF20F8022B11F07C
:10025000804F18BF00F8012B7047704770477047F8
:10026000754600F02BF8AE4605006946534620F06F
:100270000700854618B020B5FFF7B6FFBDE820405F
:100280004FF000064FF000074FF000084FF0000B52
:10029000AC46ACE8C009ACE8C009ACE8C009ACE8C1
:1002A000C00921F007018D46704710B50446AFF331
:1002B00000802046BDE81040FFF781BF004870472E
:1002C0001000002001491820ABBEFEE72600020006
:1002D0007047FEE7704700002DE9FC4F81465D48FE
:1002E00006234FF001084FF00F0E4FF0000A814532
:1002F000594808BF052348444FEAB022052A4FF069
:10030000000238BF4FEAB02300930023102A08BF31
:10031000BDE8FC8F0C6808FA02F73C4200F09780B9
:100320004D68032D16D9112D26D0122D28D04E48F8
:10033000854213D04D48854210D04D4885420DD09E
:100340004C4885420AD04C48854207D04B488542EC
:1003500004D022E0DFE805F002181B1F8C6844B1CE
:10036000012C4FF0080A14BFC9F81470C9F81070B6
:1003700013E04FF0040A10E0CC6804F1040A0CE02A
:10038000CC6804F10C0A08E0D1F80CA005E0CC68B8
:1003900004F1080A01E04FF0000A082A1C4648460A
:1003A00028BF203C28BF043006680EFA04F50AFA7C
:1003B00004F426EA05052C430460C879C00646D536
:1003C0002848264E22F0030504460068B34635440B
:1003D00040F001002060206800F00100019003F06F
:1003E0000C00019E0EFA00F4254EB446AE5926EAE2
:1003F0000404009E06FA00F0204345F80C004D6806
:10040000DBF8000015F4803F0CBF20EA070440EA47
:100410000704A803CBF80040DBF8040054BF20EA2F
:10042000070440EA0704E802CBF80440DBF80800C0
:1004300054BF20EA070440EA0704A8020848CBF8A2
:1004400008400446006854BFB84338432060043372
:1004500001325BE7001C014000F8FEBF00040140D0
:100460000C0401401810024000001110000012108E
:100470000000211000002210000031100000321096
:1004800008FCFFFF002A08BF090401617047000053
:100490001B488068704700BF194801788268114482
:1004A0008160704780B50748016841F01001016024
:1004B000032000F04BF80F2000F006F800F022F8BF
:1004C000002080BD0020024070B50D4E04464FF460
:1004D0007A713078B1FBF0F079490968B1FBF0F03E
:1004E00000F0C0FA01250F2C08D838B94FF0FF30C2
:1004F00021460022002500F007F87460284670BDF0
:10050000000000207047000010B5164B1B68C3F3B5
:10051000022E0EF1040CAEF103048EF00703BCF1C1
:10052000070F4FF0010C38BF0024042B28BF042311
:100530000CFA03F3013B19400CFA04F3013BA14010
:100540001A401143BDE8104000F0A4BA05494FF627
:10055000FF030A681A4060F30A2203481043086048
:10056000704700BF0CED00E00000FA052DE9F041F6
:10057000514F04464FF480500D46395801F00701A1
:10058000A94209D2395821F0070129433950385876
:1005900000F00700A84251D1206810F0020F11D0DE
:1005A000410742BF796841F4E0617960010742BFC9
:1005B000796841F4605179607968A26821F0F001AE
:1005C00011437960C00732D14FF48050395801F09F
:1005D0000701A94209D9395821F0070129433950A7
:1005E000385800F00700A84228D1206810F0040F06
:1005F00005D07968E26821F4E06111437960000771
:1006000006D57868216920F4605040EAC10078601E
:1006100000F058F87968294AC1F30311515CC840C9
:10062000274908600F20FFF74FFF002007E06068B0
:10063000012807D1396811F4003F0BD10120C0B265
:10064000BDE8F0813968022802D18901F6D501E0C0
:100650008907F3D5796821F0030108437860FFF733
:1006600017FF0646606841F2883801280CD002283E
:1006700015D1786800F00C000828A5D0FFF708FF16
:10068000801B4045F5D914E0786800F00C00042880
:100690009AD0FFF7FDFE801B4045F5D909E0786848
:1006A00010F00C0F3FF490AFFFF7F2FE801B4045B7
:1006B000F5D90320C3E700BF00100240DC0B00089F
:1006C0000C00002010B50D4C0D48226802F00C0300
:1006D000082B18BF10BDC2F383430AA112F4803F58
:1006E000CB5C02D10C48584310BD216809A2584385
:1006F000C1F34041515CB0FBF1F010BD0410024069
:1007000000127A0002030405060708090A0B0C0D03
:100710000E0F10100102000000093D002DE9FE43FC
:1007200081460078CA4ECB4FC0074FD0386800F0E2
:100730000C00042819D0386800F00C00082803D1F8
:10074000386810F4803F10D1D9F80400A8B1B0F592
:10075000803F06D03168B0F5A02F23D141F480202E
:100760003060306840F4803022E0306810F4003FA0
:100770002CD0D9F8040048BB1EE1306820F480304A
:100780003060306820F480203060FFF781FE05463D
:10079000306810F4003F19D0FFF77AFE401B642840
:1007A000F6D9F7E021F480303060306820F4802002
:1007B0003060FFF76DFE0546306810F4003F05D14C
:1007C000FFF766FE401B6428F6D9E3E099F80000C5
:1007D000800732D5386810F00C0F08D0386800F068
:1007E0000C0008280CD1386810F4803F08D130681C
:1007F00010F0020F19D0D9F81000012815D0DBE055
:10080000D9F810109448002900F088800121016077
:10081000FFF73EFE0546306810F0020F05D1FFF7E6
:1008200037FE401B0228F6D9B4E03068D9F814101E
:1008300020F0F80040EAC100306099F8000000079D
:1008400031D5D9F8180080B183480121C0F880144F
:10085000FFF71EFE0546386A10F0020F16D1FFF7AB
:1008600017FE401B0228F6D994E07B480021C0F80F
:100870008014FFF70DFE0546386A10F0020F12D003
:10088000FFF706FE401B0228F6D983E073484FF4B9
:10089000FA510068B0FBF1F0029000BF0298411ECF
:1008A00000280291F9D199F8000040077BD5B8697A
:1008B00010F0805F0BD1B8694FF0010840F0805014
:1008C000B861B86900F080500190019801E04FF0E4
:1008D0000008634C305910F4807F10D1305940F437
:1008E00080703051FFF7D4FD0546305910F4807FF9
:1008F00005D1FFF7CDFD401B6428F6D94AE0D9F8B1
:100900000C00D8B1012805D0F96905282DD141F096
:100910000400F861F86940F001002CE0002101605A
:10092000FFF7B6FD0546306810F0020F3FF485AFC3
:10093000FFF7AEFD401B0228F5D92BE0F86920F047
:100940000100F861F86920F00400F861FFF7A0FDEC
:10095000054641F28834F86910F0020F1CD0FFF709
:1009600097FD401BA042F6D914E021F00100F86188
:10097000F86920F00400F861FFF78AFD054641F2AE
:100980008834F86910F0020F06D1FFF781FD401B93
:10099000A042F6D9032056E0B8F1000F1EBFB86997
:1009A00020F08050B861D9F81C40002C4AD038683B
:1009B00000F00C00082801D1012044E02649002065
:1009C00088460866FFF764FD0546022C0BD14446B5
:1009D000306810F0007F11D0FFF75AFD411B032053
:1009E0000229F5D92FE0306810F0007F2AD0FFF7F8
:1009F0004FFD411B03200329F5D324E0D9F8200043
:100A0000B0F5803F06D13968D9F8082021F40031CB
:100A1000114339603968D9F82420104321F4741146
:100A20000843386001202066FFF732FD0446306835
:100A300010F0007F06D1FFF72BFD011B03200229D8
:100A4000F5D900E00020C0B203B0BDE8F08300BFDC
:100A50000010024004100240000042420C0000203E
:100A60000060FEFF411E0020B0EB116F1CBF012093
:100A70007047044AF023516003490B7007219060CE
:100A80001160704710E000E023ED00E0FEE7FEE7B4
:100A90007047000010B5064A064C00F00F0300280E
:100AA00002444FEA0110B8BF1A19107010BD00BF00
:100AB00000E400E014ED00E070477047FFF7ECBC85
:100AC000B0B590B00BA81421FFF7A0FB00240120C3
:100AD0000225CDE90644CDE9044401904FF480306D
:100AE000CDE90204CDE908504FF4E0100A9001A8C6
:100AF000FFF714FE00B1FEE70F2002210B904FF428
:100B000080600D940F940E900BA80C95FFF72EFDAE
:100B100000B1FEE710B0B0BD0E480F4A016841F0C9
:100B200001010160416811400C4A416001681140B7
:100B30000160016821F480210160416821F4FE0117
:100B400041604FF41F01816005484FF00061016072
:100B5000704700BF001002400000FFF8FFFFF6FEE4
:100B600008ED00E0FEE70000B0B586B0FFF79AFCA4
:100B7000FFF7A6FF1648174C016841F040010160DD
:100B80002021006800F040000190019801200290AF
:100B900001910390032001A904902046FFF79CFBDC
:100BA0000D4D204620210122FFF76CFC059505988C
:100BB000411E00280591FAD1204620210022FFF78E
:100BC00061FC05950598411E00280591FAD1E8E7DA
:100BD0001810024000180140FFFF7F0000000000D5
:100BE000000000000102030406070809100C0008B9
:100BF00000000020100000006C010008200C00081C
:100C000010000020600600008801000800000000BD
:100C100001000000100000000000000000A24A04D3
:0400000508000131BD
:00000001FF
