:020000040800F2
:100000001004002045010008810900087D0900084E
:100010007F0900088D010008490A0008000000005F
:10002000000000000000000000000000AB09000814
:100030008F01000800000000A9090008AD090008B0
:100040005F0100085F0100085F0100085F01000810
:100050005F0100085F0100085F0100085F01000800
:100060005F0100085F0100085F0100085F010008F0
:100070005F0100085F0100085F0100085F010008E0
:100080005F0100085F0100085F0100085F010008D0
:100090005F0100085F0100085F0100085F010008C0
:1000A0005F0100085F0100085F0100085F010008B0
:1000B0005F0100085F0100085F0100085F010008A0
:1000C0005F0100085F0100085F0100085F01000890
:1000D0005F0100085F0100085F0100085F01000880
:1000E0005F0100085F0100085F0100085F01000870
:1000F0005F0100085F0100085F0100085F01000860
:100100005F0100085F0100085F0100085F0100084F
:100110005F0100085F0100085F0100085F0100083F
:100120005F0100085F0100085F0100085F0100082F
:10013000DFF80CD000F018F8004800474D0A00081E
:10014000100400200648804706480047FEE7FEE707
:10015000FEE7FEE7FEE7FEE7FEE7FEE7FEE7FEE777
:10016000FD09000831010008064C074D06E0E06873
:1001700040F0010394E8070098471034AC42F6D3EE
:10018000FFF7DAFF480B0008680B0008FEE770472E
:100190002DE9FC4F81465D4806234FF001084FF0E2
:1001A0000F0E4FF0000A8145594808BF0523484407
:1001B0004FEAB022052A4FF0000238BF4FEAB023C1
:1001C00000930023102A08BFBDE8FC8F0C6808FAD2
:1001D00002F73C4200F097804D68032D16D9112D8F
:1001E00026D0122D28D04D48854213D04C48854248
:1001F00010D04C4885420DD04B4885420AD04B4820
:10020000854207D04A48854204D022E0DFE805F065
:1002100002181B1F8C6844B1012C4FF0080A14BF50
:10022000C9F81470C9F8107013E04FF0040A10E018
:10023000CC6804F1040A0CE0CC6804F10C0A08E074
:10024000D1F80CA005E0CC6804F1080A01E04FF0F9
:10025000000A082A1C46484628BF203C28BF043014
:1002600006680EFA04F50AFA04F426EA05052C439A
:100270000460C879C00646D55D48264E22F00305C5
:1002800004460068B346354440F001002060206811
:1002900000F00100019003F00C00019E0EFA00F442
:1002A000244EB446AE5926EA0404009E06FA00F035
:1002B000204345F80C004D68DBF8000015F4803F42
:1002C0000CBF20EA070440EA0704A803CBF800406B
:1002D000DBF8040054BF20EA070440EA0704E80200
:1002E000CBF80440DBF8080054BF20EA070440EADA
:1002F0000704A8020848CBF808400446006854BF29
:10030000B84338432060043301325BE7001C0140EE
:1003100000F8FEBF000401400C0401400000111071
:100320000000121000002110000022100000311007
:100330000000321008FCFFFF002A08BF0904016119
:10034000704700001B488068704700BF194801785B
:10035000826811448160704780B50748016841F0A8
:1003600010010160032000F069F8002000F006F899
:1003700000F022F8002080BD0020024070B50D4E34
:1003800004464FF47A713078B1FBF0F0884909687F
:10039000B1FBF0F000F0DEFA01250F2C08D838B9D7
:1003A0004FF0FF3021460022002500F025F8746050
:1003B000284670BD0000002082B00D48042201686C
:1003C00041F001010160016801F001010191019911
:1003D000416841F080514160406800F080500090D9
:1003E00000980448016862F31A61016002B0704726
:1003F000181002400400014010B5164B1B68C3F3EF
:10040000022E0EF1040CAEF103048EF00703BCF1D2
:10041000070F4FF0010C38BF0024042B28BF042322
:100420000CFA03F3013B19400CFA04F3013BA14021
:100430001A401143BDE8104000F0A4BA05494FF638
:10044000FF030A681A4060F30A2203481043086059
:10045000704700BF0CED00E00000FA052DE9F04107
:10046000514F04464FF480500D46395801F00701B2
:10047000A94209D2395821F0070129433950385887
:1004800000F00700A84251D1206810F0020F11D0EF
:10049000410742BF796841F4E0617960010742BFDA
:1004A000796841F4605179607968A26821F0F001BF
:1004B00011437960C00732D14FF48050395801F0B0
:1004C0000701A94209D9395821F0070129433950B8
:1004D000385800F00700A84228D1206810F0040F17
:1004E00005D07968E26821F4E06111437960000782
:1004F00006D57868216920F4605040EAC100786030
:1005000000F058F87968294A0024C1F30311515CBE
:10051000C840274908600020FFF730FF07E0606807
:10052000012807D1396811F4003F0BD10124E0B252
:10053000BDE8F0813968022802D18901F6D501E0D1
:100540008907F3D5796821F0030108437860FFF744
:10055000F9FE0646606841F2883801280CD002286E
:1005600015D1786800F00C000828A5D0FFF7EAFE46
:10057000801B4045F5D914E0786800F00C00042891
:100580009AD0FFF7DFFE801B4045F5D909E0786877
:1005900010F00C0F3FF490AFFFF7D4FE801B4045E6
:1005A000F5D90324C3E700BF00100240360B000852
:1005B0000C00002010B50D4C0D48226802F00C0311
:1005C000082B18BF10BDC2F383430AA112F4803F69
:1005D000CB5C02D10C48584310BD216809A2584396
:1005E000C1F34041515CB0FBF1F010BD041002407A
:1005F00000127A0002030405060708090A0B0C0D15
:100600000E0F10100102000000093D002DE9FE430D
:1006100081460078CA4ECB4FC0074FD0386800F0F3
:100620000C00042819D0386800F00C00082803D109
:10063000386810F4803F10D1D9F80400A8B1B0F5A3
:10064000803F06D03168B0F5A02F23D141F480203F
:100650003060306840F4803022E0306810F4003FB1
:100660002CD0D9F8040048BB1EE1306820F480305B
:100670003060306820F480203060FFF763FE05466C
:10068000306810F4003F19D0FFF75CFE401B64286F
:10069000F6D9F7E021F480303060306820F4802013
:1006A0003060FFF74FFE0546306810F4003F05D17B
:1006B000FFF748FE401B6428F6D9E3E099F80000F4
:1006C000800732D5386810F00C0F08D0386800F079
:1006D0000C0008280CD1386810F4803F08D130682D
:1006E00010F0020F19D0D9F81000012815D0DBE066
:1006F000D9F810109448002900F088800121016089
:10070000FFF720FE0546306810F0020F05D1FFF715
:1007100019FE401B0228F6D9B4E03068D9F814104D
:1007200020F0F80040EAC100306099F800000007AE
:1007300031D5D9F8180080B183480121C0F8801460
:10074000FFF700FE0546386A10F0020F16D1FFF7DA
:10075000F9FD401B0228F6D994E07B480021C0F83F
:100760008014FFF7EFFD0546386A10F0020F12D033
:10077000FFF7E8FD401B0228F6D983E073484FF4E9
:10078000FA510068B0FBF1F0029000BF0298411EE0
:1007900000280291F9D199F8000040077BD5B8698B
:1007A00010F0805F0BD1B8694FF0010840F0805025
:1007B000B861B86900F080500190019801E04FF0F5
:1007C0000008634C305910F4807F10D1305940F448
:1007D00080703051FFF7B6FD0546305910F4807F28
:1007E00005D1FFF7AFFD401B6428F6D94AE0D9F8E0
:1007F0000C00D8B1012805D0F96905282DD141F0A8
:100800000400F861F86940F001002CE0002101606B
:10081000FFF798FD0546306810F0020F3FF485AFF2
:10082000FFF790FD401B0228F5D92BE0F86920F076
:100830000100F861F86920F00400F861FFF782FD1B
:10084000054641F28834F86910F0020F1CD0FFF71A
:1008500079FD401BA042F6D914E021F00100F861B7
:10086000F86920F00400F861FFF76CFD054641F2DD
:100870008834F86910F0020F06D1FFF763FD401BC2
:10088000A042F6D9032056E0B8F1000F1EBFB869A8
:1008900020F08050B861D9F81C40002C4AD038684C
:1008A00000F00C00082801D1012044E02649002076
:1008B00088460866FFF746FD0546022C0BD14446E4
:1008C000306810F0007F11D0FFF73CFD411B032082
:1008D0000229F5D92FE0306810F0007F2AD0FFF709
:1008E00031FD411B03200329F5D324E0D9F8200072
:1008F000B0F5803F06D13968D9F8082021F40031DD
:10090000114339603968D9F82420104321F4741157
:100910000843386001202066FFF714FD0446306864
:1009200010F0007F06D1FFF70DFD011B0320022907
:10093000F5D900E00020C0B203B0BDE8F08300BFED
:100940000010024004100240000042420C0000204F
:100950000060FEFF411E0020B0EB116F1CBF0120A4
:100960007047044AF023516003490B7007219060DF
:100970001160704710E000E023ED00E0FEE7FEE7C5
:100980007047000010B5064A064C00F00F0300281F
:1009900002444FEA0110B8BF1A19107010BD00BF11
:1009A00000E400E014ED00E070477047FFF7CEBCB4
:1009B000B0B590B000244FF4803001210225CDE97C
:1009C0000B44CDE909440790069108940A91CDE9BA
:1009D0000D504FF4E0100F9006A8FFF717FE0F2000
:1009E0000221CDE901054FF480600394CDE90404B0
:1009F00001A8FFF733FD10B0B0BD00000E480F4A4C
:100A0000016841F001010160416811400C4A4160F8
:100A1000016811400160016821F480210160416892
:100A200021F4FE0141604FF41F01816005484FF041
:100A300000610160704700BF001002400000FFF835
:100A4000FFFFF6FE08ED00E0FEE700002DE9F043B1
:100A500085B0FFF781FCFFF7ABFF2C482C4C01223F
:100A60004FF020080127016804F5406541F040017E
:100A70000160016801F0400101910199016841F0B4
:100A8000080101602021006800F008000190019831
:100A90002846FFF751FC204620210122FFF74CFC9D
:100AA00001AE4FF003092846CDE90187039731468F
:100AB000CDF81090FFF76CFB20463146CDE9018759
:100AC000CDE90379FFF764FB124E20462021012275
:100AD000FFF732FC284620210122FFF72DFC01966A
:100AE0000198411E00280191FAD1204620210022C0
:100AF000FFF722FC284620210022FFF71DFC01966B
:100B00000198411E00280191FAD1DEE71810024039
:100B1000000C0140FFFF7F0002E008C8121F08C15F
:100B2000002AFAD170477047002001E001C1121F6E
:100B3000002AFBD170470000000000000000010205
:100B40000304060708090000680B000800000020E5
:100B500010000000180B0008780B0008100000209F
:100B600000040000280B0008010000001000000035
:080B70000000000000A24A048D
:0400000508000131BD
:00000001FF
